:100000000C9464000C948C000C948C000C948C0068
:100010000C948C000C948C000C948C000C948C0030
:100020000C948C000C948C000C948C000C948C0020
:100030000C948C000C948C000C948C000C948C0010
:100040000C943F090C948C000C94C30A0C948C0003
:100050000C948C000C948C000C948C000C948C00F0
:100060000C94B4040C948C000000000024002700C1
:100070002A0000000000250028002B0000000000DE
:1000800023002600290004040404040404040202DA
:100090000202020203030303030301020408102007
:1000A0004080010204081020010204081020000012
:1000B0000007000201000003040600000000000029
:1000C0000000F50367060C0C11241FBECFEFD8E02B
:1000D000DEBFCDBF11E0A0E0B1E0E2EAFAE102C08C
:1000E00005900D92A232B107D9F712E0A2E2B1E079
:1000F00001C01D92AD30B107E1F710E0C8ECD0E0CF
:1001000004C02297FE010E944B0DC23CD107C9F7E3
:100110000E9438090C944F0D0C9400000F931F930C
:10012000CF93DF93689F8001699F100D789F100D1A
:100130001124C8010E94AA00EC01009729F060E098
:1001400070E0A8010E94AC01CE01DF91CF911F9118
:100150000F910895CF93DF93BC018230910510F485
:1001600062E070E0A0910B02B0910C02ED01E0E0C2
:10017000F0E040E050E021C0888199818617970720
:1001800069F48A819B81309719F09383828304C03C
:1001900090930C0280930B02FE0134C0681779071C
:1001A00038F44115510519F08417950708F4AC018E
:1001B000FE018A819B819C01E9012097E9F64115A6
:1001C0005105A9F1CA01861B970B049708F4BA01DF
:1001D000E0E0F0E02AC08D919C911197841795077B
:1001E000F9F46417750781F412968D919C91139719
:1001F000309719F09383828304C090930C0280930C
:100200000B02FD0132964CC0CA01861B970BFD0103
:10021000E80FF91F6193719302978D939C9340C0EF
:10022000FD01828193819C01D9011097A1F68091F3
:10023000090290910A02892B41F480910201909168
:10024000030190930A0280930902409104015091A6
:1002500005014115510541F44DB75EB7809100018C
:1002600090910101481B590B2091090230910A021B
:10027000CA01821B930B8617970780F0AB014E5F74
:100280005F4F8417950750F0420F531F50930A0297
:1002900040930902F9016193719302C0E0E0F0E03C
:1002A000CF01DF91CF910895CF93DF93009709F4A9
:1002B00050C0EC0122971B821A82A0910B02B091D0
:1002C0000C02109709F140E050E0AC17BD0708F1AF
:1002D000BB83AA83FE0121913191E20FF31FAE1778
:1002E000BF0779F48D919C911197280F391F2E5FCC
:1002F0003F4F3983288312968D919C9113979B834E
:100300008A834115510571F4D0930C02C0930B02FE
:1003100020C012968D919C911397AD01009711F01A
:10032000DC01D3CFFA01D383C28321913191E20F53
:10033000F31FCE17DF0769F488819981280F391FD1
:100340002E5F3F4FFA01318320838A819B81938303
:100350008283DF91CF910895DC0101C06D934150FC
:100360005040E0F70895DC011A966C931A97462FD7
:1003700050E0CA018A579F4FFC0124911B962C9391
:100380001B9746565F4FFA0184911C968C931C97DD
:1003900030E0220F331FF901EE58FF4F8591949101
:1003A0001E969C938E931D97F901E458FF4F8591FB
:1003B000949150969C938E931F97F901E859FF4FA3
:1003C0008591949152969C938E9351978FEF1896A6
:1003D0008C93189719961C92199787E0FD01E80FE6
:1003E000F11D1082882311F08150F8CF0895DC01AF
:1003F0008FEF18968C93189719961C92199787E08F
:10040000FD01E80FF11D1082882311F08150F8CF13
:100410000895FC0140E030E05CE80EC0208190E0EF
:10042000822F8327369580FD35279F5F983011F006
:100430002695F6CF4F5F3196461780F3832F0895A8
:10044000FF920F931F938C01DC015196ED91FC916B
:10045000529780811C969C911C97892B80831D96B6
:10046000ED91FC911E9790811C968C91809589232B
:10047000808381E090E00E94BF09D8015196ED9100
:10048000FC91529790811C968C9180958923808352
:1004900085E090E00E94BF09D8011F96ED91FC9184
:1004A00050972081FF2430E01C968C9190E0282307
:1004B0003923232B11F0FF24F39482E390E00E9470
:1004C000BF098F2D1F910F91FF900895EF92FF921A
:1004D0000F931F93CF93DF937C0101E010E0C0E006
:1004E000D0E0C7010E9420028111102B000F21963D
:1004F000C830D105B1F7812FDF91CF911F910F91B6
:10050000FF90EF900895EF92FF920F931F937C015D
:10051000062FDC015196ED91FC91529780811C963B
:100520009C911C97892B80831D96ED91FC911E97C1
:1005300090811C968C91809589238083017010E0B6
:10054000F801EA5EFE4F808190E00E94BF09D7016A
:100550001D96ED91FC911E9780811C969C91892B94
:1005600080830C5E1E4FF801808190E00E94BF09DD
:100570001F910F91FF90EF900895CF92DF92EF922D
:10058000FF920F931F93CF93DF938C01E42EFF24F0
:10059000F394C0E0D0E0C62EDD2460E08F2D90E023
:1005A0008C219D21892B09F061E0C8010E94830202
:1005B000FF0C2196C830D10581F7EE2051F4F801E7
:1005C000828560E00E94070AF801828560E00E944F
:1005D000270ADF91CF911F910F91FF90EF90DF904D
:1005E000CF900895EF92FF920F931F93CF93DF93D5
:1005F0008C017B0165E540E00E94BD02C0E0D0E0D7
:10060000F701EC0FFD1FC801608140E00E94BD02B0
:100610002196C830D105A1F7DF91CF911F910F919D
:10062000FF90EF9008951F93CF93DF93EC018A859D
:1006300060E00E94070A1DE7115010F410E028C086
:1006400082E090E00E94BF098A850E94740A892B8B
:1006500099F38A8560E00E94270A8A8561E00E94FA
:10066000070A84EF91E00E94BF098A8560E00E943A
:10067000070A81E490E00E94BF098A850E94740AFB
:1006800010E0892B09F411E08AEE91E00E94BF0985
:10069000812FDF91CF911F9108958F929F92AF92FA
:1006A000BF92DF92EF92FF920F931F93CF93DF934E
:1006B000EC015B018985882309F080C0CE010E948E
:1006C0001303882309F47AC0CE0160EF40E00E9452
:1006D000BD02DD24DA94EE24E39400E010E021E092
:1006E000822E912CCE010E942002F82ECE010E9473
:1006F0002002282F502F569556955695C801877081
:100700009070B40102C0660F771F8A95E2F7462FFA
:10071000FF2029F0222309F051C09F2D21C0222360
:1007200039F58885992787FD90950817190711F4E1
:10073000D8860EC0081719076CF4262F30E0FE018A
:10074000E50FF11D808190E028233923232B19F038
:1007500091E003C0088790E0EE24D02E992341F069
:10076000FE01E50FF11D8081842B8083F92E07C0E7
:10077000FE01E50FF11D4095808148234083CE01A5
:100780006F2D0E9483020F5F1F4F0034110509F087
:10079000A9CFEE2011F081E0898720E030E0F5015B
:1007A000E20FF31FDE01A20FB31F8C9180832F5F36
:1007B0003F4F2830310599F781E001C080E0DF919B
:1007C000CF911F910F91FF90EF90DF90BF90AF906E
:1007D0009F908F90089581E080932B016093260174
:1007E0001092290110922A0108950895DF93CF9362
:1007F0000F92CDB7DEB7698380912B018823A9F0D2
:1008000080912A018032B0F480912901E091270182
:10081000F0912801E80FF11D6083809129018F5F1D
:100820008093290180932A0105C0CE01019661E0E1
:100830000E9497040F90CF91DF9108950E94F603D4
:1008400008956091270170912801809126014091BF
:100850002A0121E00E9452041092290110922A01DB
:1008600010922B01089580E290E061E070E00E9418
:100870008E00809322019093230110922401109204
:10088000250180E290E061E070E00E948E0080939C
:100890002701909328011092290110922A010E94A9
:1008A000360608951F93582F122F413210F081E021
:1008B0003CC080912D018823E1F782E080932D01D7
:1008C0008FEF80933E011092350140933601A09145
:1008D0003301B0913401FB0102C081918D938E2FC1
:1008E000861B8417D0F3852F90E0880F991F809383
:1008F0002E0185EE8093BC00112321F080912D0103
:100900008230E1F380913E018F3F11F480E00DC011
:1009100080913E01803211F482E007C080913E0157
:10092000803311F084E001C083E01F910895482FC7
:10093000613210F081E0089580912D01843011F032
:1009400082E0089560933A01A0913701B091380197
:10095000842F9C01F90102C081918D938E2F841BFD
:100960008617D0F380E008951F920F920FB60F9272
:1009700011242F933F934F935F936F937F938F93A4
:100980009F93AF93BF93EF93FF938091B90090E053
:10099000887F90708036910509F4E2C08136910518
:1009A000CCF58832910509F47BC089329105B4F405
:1009B0008031910509F46FC0813191053CF40097B5
:1009C00009F438C1089709F040C165C08831910524
:1009D00009F466C0809709F038C17FC08034910562
:1009E00009F4A3C08134910544F48033910509F4DE
:1009F0007FC0C89709F029C186C08035910509F4E8
:100A000086C08835910509F495C08834910509F0B0
:100A10001CC19EC08839910509F404C1893991052A
:100A2000ECF48837910509F49BC0893791054CF4A3
:100A30008836910509F494C08037910509F005C105
:100A40008FC08838910509F4EDC08039910509F40B
:100A50008DC08038910509F0F8C088C0803B9105B1
:100A600009F4B2C0813B91054CF4803A910509F438
:100A700091C0883A910509F0E8C0A6C0803C910574
:100A800009F4D4C0883C910509F4D0C0883B910595
:100A900009F0DBC0B1C080912E018093BB00C0C0C3
:100AA0009091350180913601981778F49091350135
:100AB000E0913301F0913401E90FF11D80818093C1
:100AC000BB009F5F90933501ABC085ED8093BC0068
:100AD0008091BC0084FDFCCFB6C080E280933E01D3
:100AE00085ED8093BC008091BC0084FDFCCFABC041
:100AF00080E380933E0185ED8093BC008091BC0033
:100B000084FDFCCFA0C088E380933E018FC080911C
:100B100035019091BB00E0913301F0913401E80F71
:100B2000F11D90838F5F8093350190913501809105
:100B3000360174C0809135019091BB00E091330182
:100B4000F0913401E80FF11D90838F5F80933501A0
:100B500085ED8093BC008091BC0084FDFCCF73C008
:100B600083E080932D0110923D015AC080913D0198
:100B7000803208F057C080913D019091BB00E09118
:100B80003B01F0913C01E80FF11D90838F5F809352
:100B90003D0146C080913D01803248F480913D0185
:100BA000E0913B01F0913C01E80FF11D1082609152
:100BB0003D01E0913101F091320180913B01909132
:100BC0003C0170E0099532C084E080932D011092C1
:100BD000390110923A01E0912F01F091300109950D
:100BE00080913A01882341F481E080933A01E091B9
:100BF0003701F0913801108290913901E09137016D
:100C0000F0913801E90FF11D80818093BB009F5F57
:100C1000909339019091390180913A01981710F41D
:100C200085EC01C085E88093BC000FC085EC809303
:100C3000BC0009C010923E0185ED8093BC008091FC
:100C4000BC0084FDFCCF10922D01FF91EF91BF916C
:100C5000AF919F918F917F916F915F914F913F9154
:100C60002F910F900FBE0F901F90189510922D018D
:100C7000449A459AE9EBF0E080818E7F8083808101
:100C80008D7F808388E48093B80085E48093BC00E6
:100C900080E290E061E070E00E948E00809333017A
:100CA0009093340180E290E061E070E00E948E0059
:100CB000809337019093380180E290E061E070E02A
:100CC0000E948E0080933B0190933C01089586E53D
:100CD00091E066E00E94B3010895CF92DF92FF9207
:100CE0000F931F93CF93DF93F82E062F142F862F89
:100CF00061E00E94070A8F2D61E00E94070A8F2D94
:100D000060E00E94270A802F60E00E94270AC7E067
:100D1000D0E0C12EDD24802F60E00E94270AB601BA
:100D20000C2E02C0759567950A94E2F761708F2DBD
:100D30000E94270A802F61E00E94270A8F2D60E021
:100D40000E94270A21978FEFCF3FD80721F7802FE6
:100D500060E00E94270ADF91CF911F910F91FF90D1
:100D6000DF90CF900895EF92FF921F93182F7B0191
:100D70008091060160E00E94270A6091080170914D
:100D800009018FE391E0E80EF91E80910A0190912C
:100D90000B01F70140810E946D068091060161E020
:100DA0000E94270A812F61E00E94270A61E070E01B
:100DB00080E090E00E949509812F60E00E94270A60
:100DC0001F91FF90EF9008950F931F93CF93DF93A0
:100DD0008C01EC0197FF04C0CC27DD27C81BD90B81
:100DE000663439F480911201909113016CE070E047
:100DF00008C0633441F480911201909113016BE0BB
:100E000070E00E94B306CE016AE070E00E94E50C3B
:100E1000BC0180911001909111010E94B306CE0196
:100E20006AE070E00E94E50CEB011616170604F567
:100E3000CB016AE070E00E94E50CBC0180910E01DC
:100E400090910F010E94B306CE016AE070E00E940B
:100E5000E50CCB016115710559F06AE070E00E9464
:100E6000E50CBC0180910C0190910D010E94B3062C
:100E700017FF08C080910C0190910D016AE070E0AD
:100E80000E94B306DF91CF911F910F910895EF92C9
:100E9000FF920F931F93DF93CF93CDB7DEB7649785
:100EA0000FB6F894DEBF0FBECDBF86E591E08E0190
:100EB0000F5F1F4FB8010E944D03882329F486E578
:100EC00091E00E94F70167C0C80167E00E94090233
:100ED0009885891709F05FC08981883209F05BC065
:100EE00086E591E00E94130386E591E0B8010E9437
:100EF000F20286E591E064E441E00E94BD0286E5ED
:100F000091E00E94130386E591E0B8010E94F2028D
:100F100086E591E06EEB40E00E94BD028E01075F26
:100F20001F4F62E1E62EF12CEC0EFD1E86E591E0EE
:100F30000E946602F80181938F01EE15FF05B1F75B
:100F40009A8580E02985FC01E20FF11D8F01007078
:100F500010780115110519F0F095E195FF4FCF01BB
:100F600064E070E00E94E50CCB019F01220F331F6B
:100F70002E0F3F1F220F331F820F931F64E670E076
:100F80000E94E50C012B11F4AB0107C04427552743
:100F9000461B570B02C047EE53E0CA0164960FB6DA
:100FA000F894DEBF0FBECDBFCF91DF911F910F919F
:100FB000FF90EF900895DF92EF92FF920F931F93AF
:100FC000382FF62EE42ED22E0CE211E0C801632F4A
:100FD0000E94EB03C80168E670E00E941E04C8018D
:100FE0006F2D0E94F603C8016E2D0E94F603C80102
:100FF0006D2D0E94F603C8010E9421041F910F91DC
:10100000FF90EF90DF900895AF92BF92CF92DF9262
:10101000EF92FF920F931F930E94870960934C01F8
:1010200070934D0180934E0190934F01E0905001D9
:10103000F09051010091520110915301A8019701C4
:1010400028573C4E4F4F5F4F261737074807590721
:1010500068F08091540190915501875E934031F082
:10106000E114F1040105110509F04BC00E94470786
:10107000909355018093540120914C0130914D0182
:1010800040914E0150914F012093500130935101F6
:10109000409352015093530100D000D0AA2797FDEE
:1010A000A095BA2F2CED30E040E050E0EDB7FEB750
:1010B0002183328343835483BC01CD012CEE3FEF67
:1010C0004FEF5FEFF8E2EF2EF12C012D112DE1E053
:1010D000AE2EB12CC12CD12C0E947D0C0F900F9004
:1010E0000F900F906E527F4F8F4F9F4F2FEF30E03A
:1010F00040E050E00E941A0D80E04FEF2FEF0E9479
:10110000DB078091540190915501F3E0873E9F07E2
:1011100019F063E40E94E4061F910F91FF90EF9095
:10112000DF90CF90BF90AF900895CF93DF938091E1
:101130000C0161E00E94070A80910E0161E00E94AB
:10114000070A8091100161E00E94070A8091120154
:1011500061E00E94070A8091060161E00E94070A8F
:1011600086EF91E040E855E260E070E00E94000BFD
:1011700080EC80933F0189EF8093400184EA809363
:10118000410180EB8093420189E98093430182E928
:101190008093440182E88093450188EF8093460163
:1011A00080E88093470180E9809348018FEB80932A
:1011B000490186EC80934A018EE880934B0187B108
:1011C0008C6087B94298439A64E670E080E090E0D2
:1011D0000E9495098CE291E00E9433048CE291E038
:1011E00060E00E94EB038CE291E06FE670E00E9409
:1011F0001E048CE291E00E9421048CE291E060E008
:101200000E94EB038CE291E066E670E00E941E040F
:101210008CE291E064E10E94F6038CE291E00E948E
:10122000210480E062ED4FEF2FEF0E94DB0760E4C6
:101230007FE180E090E00E949509C3EDD0E0CE010F
:101240006FEF70E00E94E50C682F80E04FEF2FEF0A
:101250000E94DB0764E670E080E090E00E94950960
:10126000219681E0CF3AD80751F7DF91CF910895C9
:101270000E94CD090E9495080E940408FDCF1F928C
:101280000F920FB60F9211242F933F938F939F933A
:10129000AF93BF9380916D0190916E01A0916F010A
:1012A000B0917001309171010196A11DB11D232FE4
:1012B0002D5F2D3720F02D570196A11DB11D2093D4
:1012C000710180936D0190936E01A0936F01B093B3
:1012D00070018091690190916A01A0916B01B091B8
:1012E0006C010196A11DB11D8093690190936A0163
:1012F000A0936B01B0936C01BF91AF919F918F91BF
:101300003F912F910F900FBE0F901F9018958FB7A0
:10131000F89420916D0130916E0140916F015091D0
:1013200070018FBFB901CA010895EF92FF920F9328
:101330001F937B018C018FB7F89440916D01509100
:101340006E0160916F01709170018FBF2FB7F8949B
:1013500080916D0190916E01A0916F01B09170012B
:101360002FBF841B950BA60BB70BE816F9060A07CF
:101370001B0760F71F910F91FF90EF900895019761
:1013800059F0FC01EE0FFF1FEE0FFF1F32978FB7D2
:10139000F8943197F1F78FBF0895789484B58260FF
:1013A00084BD84B5816084BD85B5826085BD85B509
:1013B000816085BDEEE6F0E0808181608083E1E8B8
:1013C000F0E0808182608083808181608083E0E8BA
:1013D000F0E0808181608083E1EBF0E080818460D7
:1013E0008083E0EBF0E0808181608083EAE7F0E0D9
:1013F000808184608083808182608083808181603D
:1014000080838081806880831092C1000895282F96
:1014100030E0C90186569F4FFC0194912A573F4FF7
:10142000F9018491882391F0E82FF0E0EE0FFF1F7F
:10143000E859FF4FA591B491662329F48C919095BA
:1014400089238C9308958C91892B8C930895482F30
:1014500050E0CA0182559F4FFC012491CA01865673
:101460009F4FFC0194914A575F4FFA013491332307
:10147000D1F1222331F1233021F4809180008F7744
:1014800005C0243031F4809180008F7D80938000EE
:1014900018C0213019F484B58F7704C0223021F4AC
:1014A00084B58F7D84BD0DC0263021F48091B000BD
:1014B0008F7705C0273029F48091B0008F7D80930D
:1014C000B000E32FF0E0EE0FFF1FEE58FF4FA591A5
:1014D000B491662329F48C91909589238C93089577
:1014E0008C91892B8C930895682F70E0CB018255E5
:1014F0009F4FFC012491CB0186569F4FFC014491E4
:101500006A577F4FFB019491992319F420E030E052
:1015100038C0222331F1233021F4809180008F776D
:1015200005C0243031F4809180008F7D809380004D
:1015300018C0213019F484B58F7704C0223021F40B
:1015400084B58F7D84BD0DC0263021F48091B0001C
:101550008F7705C0273029F48091B0008F7D80936C
:10156000B000892F90E0880F991F84589F4FFC018D
:10157000A591B4918C9120E030E0842311F021E01A
:1015800030E0C90108951F920F920FB60F921124F7
:101590002F933F934F935F936F937F938F939F937B
:1015A000AF93BF93EF93FF934091C600E091F20198
:1015B000F091F301CF01019660E870E00E94E50C24
:1015C0009C018091F4019091F5012817390739F0B9
:1015D000EE58FE4F40833093F3012093F201FF91C8
:1015E000EF91BF91AF919F918F917F916F915F919B
:1015F0004F913F912F910F900FBE0F901F90189514
:101600005F926F927F928F929F92AF92BF92CF9292
:10161000DF92EF92FF920F931F93CF93DF93EC0132
:101620003A014B01413482E458078FE0680780E0BB
:1016300078070CF07FC060E874E88EE190E0A401C8
:1016400093010E941A0D2150304040405040CA0181
:10165000B90122E030E040E050E00E941A0D59014B
:101660006A01A6019501209530954095509594E02A
:10167000220F331F441F551F9A95D1F760E074E283
:1016800084EF90E00E941A0DCA01B9012FEF30E0FB
:1016900040E050E00E94C60CA40193010E941A0D84
:1016A000C90181509F4F181619061CF4522E5A94E6
:1016B00003C055245394521A60E079E08DE390E022
:1016C000A40193010E941A0D215030404040504027
:1016D000CA01B90122E030E040E050E00E941A0D5A
:1016E000209530954095509583E0220F331F441F7D
:1016F000551F8A95D1F760E074E284EF90E00E9474
:101700001A0DCA01B9012FEF30E040E050E00E940D
:10171000C60CA40193010E941A0DC90181509F4F6C
:10172000181619061CF4822F815002C081E0821B1A
:10173000851500F5E885F98581E090E00A8802C00A
:10174000880F991F0A94E2F7808360E079E08DE3C7
:1017500090E0A40193010E941A0D215030404040B6
:101760005040CA01B90122E030E040E050E00E9460
:101770001A0D04C0E885F98510829501EC81FD8180
:101780003083EE81FF812083EA85FB85208141E063
:1017900050E0CA010E8402C0880F991F0A94E2F734
:1017A000282B2083EA85FB852081CA010F8402C093
:1017B000880F991F0A94E2F7282B2083EA85FB857E
:1017C0008081088802C0440F551F0A94E2F7842BD9
:1017D0008083DF91CF911F910F91FF90EF90DF9069
:1017E000CF90BF90AF909F908F907F906F905F90C1
:1017F0000895FC01A085B18521898C9190E0022E8D
:1018000002C0959587950A94E2F780FFF6CF04848D
:10181000F585E02D608308958CE191E09093F701C8
:101820008093F60182E791E09093F9018093F801AB
:1018300085EC90E09093FB018093FA0184EC90E0BA
:101840009093FD018093FC0180EC90E09093FF0168
:101850008093FE0181EC90E090930102809300025E
:1018600086EC90E0909303028093020284E08093E0
:10187000040283E08093050287E08093060285E0FE
:101880008093070281E08093080208950F931F93CD
:10189000CF93DF938C01EB0109C02196D801ED9124
:1018A000FC910190F081E02DC801099568816623C3
:1018B000A1F7DF91CF911F910F910895EF92FF92C1
:1018C0000F931F93CF93DF938C017B01EA010CC030
:1018D000D7016D917D01D801ED91FC910190F081CE
:1018E000E02DC80109952197209791F7DF91CF91BD
:1018F0001F910F91FF90EF9008952F923F924F927A
:101900005F926F927F928F929F92AF92BF92CF928F
:10191000DF92EF92FF920F931F93DF93CF93CDB798
:10192000DEB73B014C0119012A016D897E898F893F
:10193000988D6A197B098C099D09621A730A840AB9
:10194000950AA40193010E94C60CE218F308040949
:101950001509A80197010E941A0D2A0D3B1D4C1D67
:101960005D1DB901CA01CF91DF911F910F91FF90C9
:10197000EF90DF90CF90BF90AF909F908F907F902F
:101980006F905F904F903F902F900895629FD0018D
:10199000739FF001829FE00DF11D649FE00DF11D2A
:1019A000929FF00D839FF00D749FF00D659FF00DD9
:1019B0009927729FB00DE11DF91F639FB00DE11DC6
:1019C000F91FBD01CF011124089597FB092E0726A9
:1019D0000AD077FD04D049D006D000201AF47095C3
:1019E00061957F4F0895F6F7909581959F4F0895E3
:1019F000A1E21A2EAA1BBB1BFD010DC0AA1FBB1F13
:101A0000EE1FFF1FA217B307E407F50720F0A21B84
:101A1000B30BE40BF50B661F771F881F991F1A94F1
:101A200069F760957095809590959B01AC01BD011B
:101A3000CF01089597FB092E05260ED057FD04D03F
:101A4000D7DF0AD0001C38F4509540953095219589
:101A50003F4F4F4F5F4F0895F6F7909580957095E3
:101A600061957F4F8F4F9F4F0895AA1BBB1B51E17C
:101A700007C0AA1FBB1FA617B70710F0A61BB70BFE
:101A8000881F991F5A95A9F780959095BC01CD01A3
:101A90000895EE0FFF1F0590F491E02D0994F8943E
:021AA000FFCF76
:101AA20020000D02000008000C000B0005000200DF
:101AB200030004000537370500000000F90B460C4F
:021AC2005E0CB8
:00000001FF
